{
  "contractName": "CertyficateCreator",
  "abi": [
    {
      "constant": true,
      "inputs": [
        {
          "name": "",
          "type": "uint256"
        }
      ],
      "name": "certificates",
      "outputs": [
        {
          "name": "",
          "type": "address"
        }
      ],
      "payable": false,
      "stateMutability": "view",
      "type": "function"
    },
    {
      "constant": false,
      "inputs": [
        {
          "name": "_quantityOfCertificate",
          "type": "uint256"
        }
      ],
      "name": "createCertificate",
      "outputs": [],
      "payable": false,
      "stateMutability": "nonpayable",
      "type": "function"
    }
  ],
  "bytecode": "0x608060405234801561001057600080fd5b50610bfe806100206000396000f30060806040526004361061004c576000357c0100000000000000000000000000000000000000000000000000000000900463ffffffff168063663b3e2214610051578063fab091be146100be575b600080fd5b34801561005d57600080fd5b5061007c600480360381019080803590602001909291905050506100eb565b604051808273ffffffffffffffffffffffffffffffffffffffff1673ffffffffffffffffffffffffffffffffffffffff16815260200191505060405180910390f35b3480156100ca57600080fd5b506100e960048036038101908080359060200190929190505050610129565b005b6000818154811015156100fa57fe5b906000526020600020016000915054906101000a900473ffffffffffffffffffffffffffffffffffffffff1681565b600033826101356101fb565b808373ffffffffffffffffffffffffffffffffffffffff1673ffffffffffffffffffffffffffffffffffffffff16815260200182815260200192505050604051809103906000f08015801561018e573d6000803e3d6000fd5b50905060008190806001815401808255809150509060018203906000526020600020016000909192909190916101000a81548173ffffffffffffffffffffffffffffffffffffffff021916908373ffffffffffffffffffffffffffffffffffffffff160217905550505050565b6040516109c78061020c833901905600608060405234801561001057600080fd5b506040516040806109c7833981018060405281019080805190602001909291908051906020019092919050505080600181905550816000806101000a81548173ffffffffffffffffffffffffffffffffffffffff021916908373ffffffffffffffffffffffffffffffffffffffff160217905550600154600260008060009054906101000a900473ffffffffffffffffffffffffffffffffffffffff1673ffffffffffffffffffffffffffffffffffffffff1673ffffffffffffffffffffffffffffffffffffffff1681526020019081526020016000208190555050506108cb806100fc6000396000f300608060405260043610610099576000357c0100000000000000000000000000000000000000000000000000000000900463ffffffff16806317fc45e21461009e57806318160ddd146100c957806327e235e3146100f457806370a082311461014b57806374f74e85146101a25780638da5cb5b146102395780639a46552414610290578063a9059cbb14610327578063aadf47971461038c575b600080fd5b3480156100aa57600080fd5b506100b3610417565b6040518082815260200191505060405180910390f35b3480156100d557600080fd5b506100de61041d565b6040518082815260200191505060405180910390f35b34801561010057600080fd5b50610135600480360381019080803573ffffffffffffffffffffffffffffffffffffffff169060200190929190505050610427565b6040518082815260200191505060405180910390f35b34801561015757600080fd5b5061018c600480360381019080803573ffffffffffffffffffffffffffffffffffffffff16906020019092919050505061043f565b6040518082815260200191505060405180910390f35b3480156101ae57600080fd5b506101b7610488565b6040518080602001838152602001828103825284818151815260200191508051906020019080838360005b838110156101fd5780820151818401526020810190506101e2565b50505050905090810190601f16801561022a5780820380516001836020036101000a031916815260200191505b50935050505060405180910390f35b34801561024557600080fd5b5061024e61053b565b604051808273ffffffffffffffffffffffffffffffffffffffff1673ffffffffffffffffffffffffffffffffffffffff16815260200191505060405180910390f35b34801561029c57600080fd5b506102a5610560565b6040518080602001838152602001828103825284818151815260200191508051906020019080838360005b838110156102eb5780820151818401526020810190506102d0565b50505050905090810190601f1680156103185780820380516001836020036101000a031916815260200191505b50935050505060405180910390f35b34801561033357600080fd5b50610372600480360381019080803573ffffffffffffffffffffffffffffffffffffffff1690602001909291908035906020019092919050505061060a565b604051808215151515815260200191505060405180910390f35b34801561039857600080fd5b506103fd600480360381019080803590602001908201803590602001908080601f01602080910402602001604051908101604052809392919081815260200183838082843782019150505050505091929192908035906020019092919050505061076f565b604051808215151515815260200191505060405180910390f35b60015481565b6000600154905090565b60026020528060005260406000206000915090505481565b6000600260008373ffffffffffffffffffffffffffffffffffffffff1673ffffffffffffffffffffffffffffffffffffffff168152602001908152602001600020549050919050565b606060006003600001600360010154818054600181600116156101000203166002900480601f01602080910402602001604051908101604052809291908181526020018280546001816001161561010002031660029004801561052c5780601f106105015761010080835404028352916020019161052c565b820191906000526020600020905b81548152906001019060200180831161050f57829003601f168201915b50505050509150915091509091565b6000809054906101000a900473ffffffffffffffffffffffffffffffffffffffff1681565b6003806000018054600181600116156101000203166002900480601f0160208091040260200160405190810160405280929190818152602001828054600181600116156101000203166002900480156105fa5780601f106105cf576101008083540402835291602001916105fa565b820191906000526020600020905b8154815290600101906020018083116105dd57829003601f168201915b5050505050908060010154905082565b600081600260003373ffffffffffffffffffffffffffffffffffffffff1673ffffffffffffffffffffffffffffffffffffffff168152602001908152602001600020541015801561065b5750600082115b151561066657600080fd5b81600260008573ffffffffffffffffffffffffffffffffffffffff1673ffffffffffffffffffffffffffffffffffffffff1681526020019081526020016000206000828254019250508190555081600260003373ffffffffffffffffffffffffffffffffffffffff1673ffffffffffffffffffffffffffffffffffffffff168152602001908152602001600020600082825403925050819055508273ffffffffffffffffffffffffffffffffffffffff163373ffffffffffffffffffffffffffffffffffffffff167fddf252ad1be2c89b69c2b068fc378daa952ba7f163c4a11628f55a4df523b3ef846040518082815260200191505060405180910390a36001905092915050565b60008060009054906101000a900473ffffffffffffffffffffffffffffffffffffffff1673ffffffffffffffffffffffffffffffffffffffff163373ffffffffffffffffffffffffffffffffffffffff161415156107cc57600080fd5b82600360000190805190602001906107e59291906107fa565b50816003600101819055506001905092915050565b828054600181600116156101000203166002900490600052602060002090601f016020900481019282601f1061083b57805160ff1916838001178555610869565b82800160010185558215610869579182015b8281111561086857825182559160200191906001019061084d565b5b509050610876919061087a565b5090565b61089c91905b80821115610898576000816000905550600101610880565b5090565b905600a165627a7a72305820b48e99c55d826f991498c69171891aa3f600d2695153a8acf4de65665f3d1bd30029a165627a7a723058205ed60d2acc864cf2de62efcdabf96f4f3c5181664516263b9acc014e42cdb6880029",
  "source": "pragma solidity ^0.4.24;\n\n\ncontract CertyficateCreator{\n    //dynamic array with addresses of deployed auctions\n    address[] public certificates; \n    \n    function createCertificate(uint _quantityOfCertificate) public{\n        address newCertificate = new Certyficate(msg.sender, _quantityOfCertificate);\n        certificates.push(newCertificate);\n    }\n}\n\n\n// ----------------------------------------------------------------------------\n// ERC Token Standard #20 Interface\n// https://github.com/ethereum/EIPs/blob/master/EIPS/eip-20-token-standard.md\n// ----------------------------------------------------------------------------\n\ncontract ERC20Interface {\n    function totalSupply() public view returns (uint);\n    function balanceOf(address tokenOwner) public view returns (uint balance);\n    function transfer(address to, uint tokens) public returns (bool success);\n\n    event Transfer(address indexed from, address indexed to, uint tokens);\n    \n    //function allowance(address tokenOwner, address spender) public view returns (uint remaining);\n    //function approve(address spender, uint tokens) public returns (bool success);\n    //function transferFrom(address from, address to, uint tokens) public returns (bool success);\n    //event Approval(address indexed tokenOwner, address indexed spender, uint tokens);\n}\n\ncontract Certyficate is ERC20Interface{\n    address public owner;\n    uint public quantity;\n    mapping(address => uint) public balances;\n    \n    struct CertyficateDetails {\n        string description;\n        uint liczba;\n    }\n    CertyficateDetails public certyficateDetails;\n    \n  \n    event Transfer(address indexed _from, address indexed _to, uint _quantity);\n\n\n    constructor(address _owner, uint _quantity) public{\n        quantity = _quantity;\n        owner = _owner;\n        balances[owner] = quantity;\n    }\n    \n    modifier onlyOwner(){\n        require(msg.sender == owner);\n        _;\n    } \n\n    function enterCertyficateDetails(string _description, uint _liczba) public onlyOwner returns (bool success){\n        certyficateDetails.description = _description;\n        certyficateDetails.liczba = _liczba;\n        return true;\n    }    \n    \n    function getCerfificateDetails() public view returns(string description, uint liczba ){\n        return (certyficateDetails.description, certyficateDetails.liczba);\n    }\n    \n    function totalSupply() public view returns (uint){\n        return quantity;\n    }\n    \n    function balanceOf(address _owner) public view returns (uint _ownerBalance){\n         return balances[_owner];\n     }\n     \n     \n    //transfer from the owner balance to another address\n    function transfer(address to, uint _quantity) public returns (bool success){\n         require(balances[msg.sender] >= _quantity && _quantity > 0);\n         \n         balances[to] += _quantity;\n         balances[msg.sender] -= _quantity;\n         \n         emit Transfer(msg.sender, to, _quantity);\n         \n         return true;\n     }\n    \n}",
  "sourcePath": "/home/radek/bc/cert/contracts/CertyficateCreator.sol",
  "compiler": {
    "name": "solc",
    "version": "0.4.24+commit.e67f0147.Emscripten.clang"
  },
  "schemaVersion": "2.0.1",
  "updatedAt": "2018-10-10T13:32:35.210Z"
}