{
  "contractName": "Certificate",
  "abi": [
    {
      "constant": true,
      "inputs": [],
      "name": "quantity",
      "outputs": [
        {
          "name": "",
          "type": "uint256"
        }
      ],
      "payable": false,
      "stateMutability": "view",
      "type": "function"
    },
    {
      "constant": true,
      "inputs": [
        {
          "name": "",
          "type": "address"
        }
      ],
      "name": "balances",
      "outputs": [
        {
          "name": "",
          "type": "uint256"
        }
      ],
      "payable": false,
      "stateMutability": "view",
      "type": "function"
    },
    {
      "constant": true,
      "inputs": [],
      "name": "owner",
      "outputs": [
        {
          "name": "",
          "type": "address"
        }
      ],
      "payable": false,
      "stateMutability": "view",
      "type": "function"
    },
    {
      "constant": true,
      "inputs": [],
      "name": "certificateDetails",
      "outputs": [
        {
          "name": "description",
          "type": "string"
        },
        {
          "name": "liczba",
          "type": "uint256"
        }
      ],
      "payable": false,
      "stateMutability": "view",
      "type": "function"
    },
    {
      "inputs": [
        {
          "name": "_owner",
          "type": "address"
        }
      ],
      "payable": false,
      "stateMutability": "nonpayable",
      "type": "constructor"
    },
    {
      "anonymous": false,
      "inputs": [
        {
          "indexed": true,
          "name": "_from",
          "type": "address"
        },
        {
          "indexed": true,
          "name": "_to",
          "type": "address"
        },
        {
          "indexed": false,
          "name": "_quantity",
          "type": "uint256"
        }
      ],
      "name": "Transfer",
      "type": "event"
    },
    {
      "constant": false,
      "inputs": [
        {
          "name": "_description",
          "type": "string"
        },
        {
          "name": "_liczba",
          "type": "uint256"
        }
      ],
      "name": "enterCertificateDetails",
      "outputs": [
        {
          "name": "success",
          "type": "bool"
        }
      ],
      "payable": false,
      "stateMutability": "nonpayable",
      "type": "function"
    },
    {
      "constant": true,
      "inputs": [],
      "name": "getCerfificateDetails",
      "outputs": [
        {
          "name": "description",
          "type": "string"
        },
        {
          "name": "liczba",
          "type": "uint256"
        }
      ],
      "payable": false,
      "stateMutability": "view",
      "type": "function"
    },
    {
      "constant": true,
      "inputs": [],
      "name": "totalSupply",
      "outputs": [
        {
          "name": "",
          "type": "uint256"
        }
      ],
      "payable": false,
      "stateMutability": "view",
      "type": "function"
    },
    {
      "constant": true,
      "inputs": [
        {
          "name": "_owner",
          "type": "address"
        }
      ],
      "name": "balanceOf",
      "outputs": [
        {
          "name": "_ownerBalance",
          "type": "uint256"
        }
      ],
      "payable": false,
      "stateMutability": "view",
      "type": "function"
    },
    {
      "constant": false,
      "inputs": [
        {
          "name": "to",
          "type": "address"
        },
        {
          "name": "_quantity",
          "type": "uint256"
        }
      ],
      "name": "transfer",
      "outputs": [
        {
          "name": "success",
          "type": "bool"
        }
      ],
      "payable": false,
      "stateMutability": "nonpayable",
      "type": "function"
    }
  ],
  "bytecode": "0x608060405234801561001057600080fd5b506040516020806109bd833981018060405281019080805190602001909291905050506064600181905550806000806101000a81548173ffffffffffffffffffffffffffffffffffffffff021916908373ffffffffffffffffffffffffffffffffffffffff160217905550600154600260008060009054906101000a900473ffffffffffffffffffffffffffffffffffffffff1673ffffffffffffffffffffffffffffffffffffffff1673ffffffffffffffffffffffffffffffffffffffff16815260200190815260200160002081905550506108cb806100f26000396000f300608060405260043610610099576000357c0100000000000000000000000000000000000000000000000000000000900463ffffffff16806317fc45e21461009e57806318160ddd146100c957806327e235e3146100f457806370a082311461014b57806374f74e85146101a25780638da5cb5b14610239578063a52e718814610290578063a9059cbb1461031b578063e68e3c4414610380575b600080fd5b3480156100aa57600080fd5b506100b3610417565b6040518082815260200191505060405180910390f35b3480156100d557600080fd5b506100de61041d565b6040518082815260200191505060405180910390f35b34801561010057600080fd5b50610135600480360381019080803573ffffffffffffffffffffffffffffffffffffffff169060200190929190505050610427565b6040518082815260200191505060405180910390f35b34801561015757600080fd5b5061018c600480360381019080803573ffffffffffffffffffffffffffffffffffffffff16906020019092919050505061043f565b6040518082815260200191505060405180910390f35b3480156101ae57600080fd5b506101b7610488565b6040518080602001838152602001828103825284818151815260200191508051906020019080838360005b838110156101fd5780820151818401526020810190506101e2565b50505050905090810190601f16801561022a5780820380516001836020036101000a031916815260200191505b50935050505060405180910390f35b34801561024557600080fd5b5061024e61053b565b604051808273ffffffffffffffffffffffffffffffffffffffff1673ffffffffffffffffffffffffffffffffffffffff16815260200191505060405180910390f35b34801561029c57600080fd5b50610301600480360381019080803590602001908201803590602001908080601f016020809104026020016040519081016040528093929190818152602001838380828437820191505050505050919291929080359060200190929190505050610560565b604051808215151515815260200191505060405180910390f35b34801561032757600080fd5b50610366600480360381019080803573ffffffffffffffffffffffffffffffffffffffff169060200190929190803590602001909291905050506105eb565b604051808215151515815260200191505060405180910390f35b34801561038c57600080fd5b50610395610750565b6040518080602001838152602001828103825284818151815260200191508051906020019080838360005b838110156103db5780820151818401526020810190506103c0565b50505050905090810190601f1680156104085780820380516001836020036101000a031916815260200191505b50935050505060405180910390f35b60015481565b6000600154905090565b60026020528060005260406000206000915090505481565b6000600260008373ffffffffffffffffffffffffffffffffffffffff1673ffffffffffffffffffffffffffffffffffffffff168152602001908152602001600020549050919050565b606060006003600001600360010154818054600181600116156101000203166002900480601f01602080910402602001604051908101604052809291908181526020018280546001816001161561010002031660029004801561052c5780601f106105015761010080835404028352916020019161052c565b820191906000526020600020905b81548152906001019060200180831161050f57829003601f168201915b50505050509150915091509091565b6000809054906101000a900473ffffffffffffffffffffffffffffffffffffffff1681565b60008060009054906101000a900473ffffffffffffffffffffffffffffffffffffffff1673ffffffffffffffffffffffffffffffffffffffff163373ffffffffffffffffffffffffffffffffffffffff161415156105bd57600080fd5b82600360000190805190602001906105d69291906107fa565b50816003600101819055506001905092915050565b600081600260003373ffffffffffffffffffffffffffffffffffffffff1673ffffffffffffffffffffffffffffffffffffffff168152602001908152602001600020541015801561063c5750600082115b151561064757600080fd5b81600260008573ffffffffffffffffffffffffffffffffffffffff1673ffffffffffffffffffffffffffffffffffffffff1681526020019081526020016000206000828254019250508190555081600260003373ffffffffffffffffffffffffffffffffffffffff1673ffffffffffffffffffffffffffffffffffffffff168152602001908152602001600020600082825403925050819055508273ffffffffffffffffffffffffffffffffffffffff163373ffffffffffffffffffffffffffffffffffffffff167fddf252ad1be2c89b69c2b068fc378daa952ba7f163c4a11628f55a4df523b3ef846040518082815260200191505060405180910390a36001905092915050565b6003806000018054600181600116156101000203166002900480601f0160208091040260200160405190810160405280929190818152602001828054600181600116156101000203166002900480156107ea5780601f106107bf576101008083540402835291602001916107ea565b820191906000526020600020905b8154815290600101906020018083116107cd57829003601f168201915b5050505050908060010154905082565b828054600181600116156101000203166002900490600052602060002090601f016020900481019282601f1061083b57805160ff1916838001178555610869565b82800160010185558215610869579182015b8281111561086857825182559160200191906001019061084d565b5b509050610876919061087a565b5090565b61089c91905b80821115610898576000816000905550600101610880565b5090565b905600a165627a7a72305820471412e7408bea9c00514137e742409ea8624e4e80ab76b82442e81e4d7dba9e0029",
  "source": "pragma solidity ^0.4.24;\n\n\ncontract CertificateCreator{\n    //dynamic array with addresses of deployed auctions\n    address[] public certificates; \n\n    function createCertificate() public {\n        address newCertificate = new Certificate(msg.sender);\n        certificates.push(newCertificate);\n    }\n}\n\n\n// ----------------------------------------------------------------------------\n// ERC Token Standard #20 Interface\n// https://github.com/ethereum/EIPs/blob/master/EIPS/eip-20-token-standard.md\n// ----------------------------------------------------------------------------\n\ncontract ERC20Interface {\n    function totalSupply() public view returns (uint);\n    function balanceOf(address tokenOwner) public view returns (uint balance);\n    function transfer(address to, uint tokens) public returns (bool success);\n\n    event Transfer(address indexed from, address indexed to, uint tokens);\n    \n    //function allowance(address tokenOwner, address spender) public view returns (uint remaining);\n    //function approve(address spender, uint tokens) public returns (bool success);\n    //function transferFrom(address from, address to, uint tokens) public returns (bool success);\n    //event Approval(address indexed tokenOwner, address indexed spender, uint tokens);\n}\n\ncontract Certificate is ERC20Interface{\n    address public owner;\n    uint public quantity;\n    mapping(address => uint) public balances;\n    \n    struct CertificateDetails {\n        string description;\n        uint liczba;\n    }\n    CertificateDetails public certificateDetails;\n    \n  \n    event Transfer(address indexed _from, address indexed _to, uint _quantity);\n\n\n    constructor(address _owner) public{\n        // quantity = _quantity;\n        quantity = 100;\n        owner = _owner;\n        balances[owner] = quantity;\n    }\n    \n    modifier onlyOwner(){\n        require(msg.sender == owner);\n        _;\n    } \n\n    function enterCertificateDetails(string _description, uint _liczba) public onlyOwner returns (bool success){\n        certificateDetails.description = _description;\n        certificateDetails.liczba = _liczba;\n        return true;\n    }    \n    \n    function getCerfificateDetails() public view returns(string description, uint liczba ){\n        return (certificateDetails.description, certificateDetails.liczba);\n    }\n    \n    function totalSupply() public view returns (uint){\n        return quantity;\n    }\n    \n    function balanceOf(address _owner) public view returns (uint _ownerBalance){\n        return balances[_owner];\n    }\n     \n     \n    //transfer from the owner balance to another address\n    function transfer(address to, uint _quantity) public returns (bool success){\n        require(balances[msg.sender] >= _quantity && _quantity > 0);\n         \n        balances[to] += _quantity;\n        balances[msg.sender] -= _quantity;\n         \n        emit Transfer(msg.sender, to, _quantity);\n         \n        return true;\n    }\n}",
  "sourcePath": "/home/radek/bc/cert/contracts/CertificateCreator.sol",
  "compiler": {
    "name": "solc",
    "version": "0.4.24+commit.e67f0147.Emscripten.clang"
  },
  "schemaVersion": "2.0.1",
  "updatedAt": "2018-10-13T15:13:00.799Z"
}